:100000000EC028C027C027C025C024C023C022C0DE
:1000100021C020C01FC01EC01DC01CC01BC0112499
:100020001FBECFE5D1E0DEBFCDBF10E0A0E6B0E05F
:10003000E0E4F2E002C005900D92A236B107D9F7D4
:1000400020E0A2E6B0E001C01D92A637B207E1F7BA
:10005000CED0F4C0D5CF1F920F920FB60F921124BD
:100060008F9381E0809362008F910F900FBE0F906D
:100070001F901895369A3699FECF85B10895FADF0C
:10008000809360000895E6E6F0E080E090E0219142
:100090003191820F931F20E0E637F207C1F70895F0
:1000A000B99ABA9AC198C29825E82A95F1F7000042
:1000B000BA98F894C19A80E090E0B29902C0019693
:1000C000E1F77894C29ABA9A25E82A95F1F70000E8
:1000D000BA98C298F894C198B29B02C00196E1F711
:1000E00078940895CF92DF92EF92FF92D9DF6C015E
:1000F000E12CF12CD5DFC80ED91EE11CF11CD0DF9C
:10010000C80ED91EE11CF11CCBDFA7019601280FF8
:10011000391F411D511DDA01C90122E0B695A7958D
:10012000979587952A95D1F7FF90EF90DF90CF9024
:100130000895CF93DF93809162008823E1F31092BA
:100140006200D0DFEC01809161008F5F803118F494
:100150008093610018C0109261002091640030917A
:100160006500C217D30771F02C173D071CF08FEF05
:100170009FEF02C081E090E0820F931F9093650093
:10018000809364007CDF90916300E92FF0E0EE0F34
:10019000FF1FEA59FF4F2091640030916500C21B98
:1001A000D30BD183C0839F5F9870909363006BDF04
:1001B000181619067CF48F3F910509F034F420914C
:1001C000600030E0281739071CF42FEF29BD03C069
:1001D00089BD01C019BC2091600030E028173907A3
:1001E00014F4C49A01C0C498DF91CF910895F89493
:1001F0008BE080BF80B7806880BF80E489BF1EBC71
:1002000081EA8DBD83E08ABD9AB5906C9ABD83BFAB
:1002100090E899BDB89A87B93D9A96B986B183603E
:1002200086B988E084BBBC9AC4985CDF9093650073
:100230008093640024DF78947CDFFECFF894FFCFB6
:02024000181094
:00000001FF
